{
  "contractName": "Contract1",
  "abi": [
    {
      "constant": true,
      "inputs": [],
      "name": "owner",
      "outputs": [
        {
          "name": "",
          "type": "address"
        }
      ],
      "payable": false,
      "stateMutability": "view",
      "type": "function"
    },
    {
      "inputs": [],
      "payable": false,
      "stateMutability": "nonpayable",
      "type": "constructor"
    },
    {
      "constant": false,
      "inputs": [],
      "name": "kill",
      "outputs": [],
      "payable": false,
      "stateMutability": "nonpayable",
      "type": "function"
    },
    {
      "constant": true,
      "inputs": [
        {
          "name": "_sign",
          "type": "bytes"
        },
        {
          "name": "_mesg",
          "type": "string"
        },
        {
          "name": "_num",
          "type": "uint256"
        },
        {
          "name": "_address",
          "type": "address"
        }
      ],
      "name": "verifyAddressFromTypedSign",
      "outputs": [
        {
          "name": "",
          "type": "bool"
        }
      ],
      "payable": false,
      "stateMutability": "view",
      "type": "function"
    },
    {
      "constant": true,
      "inputs": [
        {
          "name": "sign",
          "type": "bytes"
        },
        {
          "name": "signedMessage",
          "type": "bytes32"
        },
        {
          "name": "_address",
          "type": "address"
        }
      ],
      "name": "verifyAddressFromWeb3Sign",
      "outputs": [
        {
          "name": "",
          "type": "bool"
        }
      ],
      "payable": false,
      "stateMutability": "pure",
      "type": "function"
    },
    {
      "constant": true,
      "inputs": [
        {
          "name": "signedMessage",
          "type": "bytes32"
        },
        {
          "name": "v",
          "type": "uint8"
        },
        {
          "name": "r",
          "type": "bytes32"
        },
        {
          "name": "s",
          "type": "bytes32"
        },
        {
          "name": "_address",
          "type": "address"
        }
      ],
      "name": "verifyAddressWeb3SignElements",
      "outputs": [
        {
          "name": "",
          "type": "bool"
        }
      ],
      "payable": false,
      "stateMutability": "pure",
      "type": "function"
    },
    {
      "constant": true,
      "inputs": [
        {
          "name": "message",
          "type": "string"
        },
        {
          "name": "v",
          "type": "uint8"
        },
        {
          "name": "r",
          "type": "bytes32"
        },
        {
          "name": "s",
          "type": "bytes32"
        }
      ],
      "name": "hardcoded_recover",
      "outputs": [
        {
          "name": "",
          "type": "address"
        }
      ],
      "payable": false,
      "stateMutability": "pure",
      "type": "function"
    }
  ],
  "bytecode": "0x608060405234801561001057600080fd5b50336000806101000a81548173ffffffffffffffffffffffffffffffffffffffff021916908373ffffffffffffffffffffffffffffffffffffffff160217905550610b7c806100606000396000f300608060405260043610610078576000357c0100000000000000000000000000000000000000000000000000000000900463ffffffff16806341c0e1b51461007d5780636d790d371461009457806376cec905146101665780638da5cb5b146101f8578063b15ee3051461024f578063e4a7dcb614610340575b600080fd5b34801561008957600080fd5b506100926103ef565b005b3480156100a057600080fd5b50610124600480360381019080803590602001908201803590602001908080601f0160208091040260200160405190810160405280939291908181526020018383808284378201915050505050509192919290803560ff16906020019092919080356000191690602001909291908035600019169060200190929190505050610513565b604051808273ffffffffffffffffffffffffffffffffffffffff1673ffffffffffffffffffffffffffffffffffffffff16815260200191505060405180910390f35b34801561017257600080fd5b506101de6004803603810190808035600019169060200190929190803560ff16906020019092919080356000191690602001909291908035600019169060200190929190803573ffffffffffffffffffffffffffffffffffffffff1690602001909291905050506105a8565b604051808215151515815260200191505060405180910390f35b34801561020457600080fd5b5061020d610664565b604051808273ffffffffffffffffffffffffffffffffffffffff1673ffffffffffffffffffffffffffffffffffffffff16815260200191505060405180910390f35b34801561025b57600080fd5b50610326600480360381019080803590602001908201803590602001908080601f0160208091040260200160405190810160405280939291908181526020018383808284378201915050505050509192919290803590602001908201803590602001908080601f016020809104026020016040519081016040528093929190818152602001838380828437820191505050505050919291929080359060200190929190803573ffffffffffffffffffffffffffffffffffffffff169060200190929190505050610689565b604051808215151515815260200191505060405180910390f35b34801561034c57600080fd5b506103d5600480360381019080803590602001908201803590602001908080601f01602080910402602001604051908101604052809392919081815260200183838082843782019150505050505091929192908035600019169060200190929190803573ffffffffffffffffffffffffffffffffffffffff169060200190929190505050610910565b604051808215151515815260200191505060405180910390f35b6000809054906101000a900473ffffffffffffffffffffffffffffffffffffffff1673ffffffffffffffffffffffffffffffffffffffff163373ffffffffffffffffffffffffffffffffffffffff161415156104d9576040517f08c379a00000000000000000000000000000000000000000000000000000000081526004018080602001828103825260258152602001807f4f6e6c7920746865206f776e65722063616e206b696c6c207468697320636f6e81526020017f747261637400000000000000000000000000000000000000000000000000000081525060400191505060405180910390fd5b6000809054906101000a900473ffffffffffffffffffffffffffffffffffffffff1673ffffffffffffffffffffffffffffffffffffffff16ff5b6000600161052086610953565b858585604051600081526020016040526040518085600019166000191681526020018460ff1660ff1681526020018360001916600019168152602001826000191660001916815260200194505050505060206040516020810390808403906000865af1158015610594573d6000803e3d6000fd5b505050602060405103519050949350505050565b60008173ffffffffffffffffffffffffffffffffffffffff16600187878787604051600081526020016040526040518085600019166000191681526020018460ff1660ff1681526020018360001916600019168152602001826000191660001916815260200194505050505060206040516020810390808403906000865af1158015610638573d6000803e3d6000fd5b5050506020604051035173ffffffffffffffffffffffffffffffffffffffff1614905095945050505050565b6000809054906101000a900473ffffffffffffffffffffffffffffffffffffffff1681565b600080600060405160200180807f737472696e67204d657373616765000000000000000000000000000000000000815250600e01807f75696e74323536206e756d000000000000000000000000000000000000000000815250600b0190506040516020818303038152906040526040518082805190602001908083835b60208310151561072b5780518252602082019150602081019050602083039250610706565b6001836020036101000a0380198251168184511680821785525050505050509050019150506040518091039020915085856040516020018083805190602001908083835b602083101515610794578051825260208201915060208101905060208303925061076f565b6001836020036101000a038019825116818451168082178552505050505050905001828152602001925050506040516020818303038152906040526040518082805190602001908083835b60208310151561080457805182526020820191506020810190506020830392506107df565b6001836020036101000a038019825116818451168082178552505050505050905001915050604051809103902090508373ffffffffffffffffffffffffffffffffffffffff166108ed83836040516020018083600019166000191681526020018260001916600019168152602001925050506040516020818303038152906040526040518082805190602001908083835b6020831015156108ba5780518252602082019150602081019050602083039250610895565b6001836020036101000a038019825116818451168082178552505050505050905001915050604051809103902089610a2b565b73ffffffffffffffffffffffffffffffffffffffff161492505050949350505050565b60008173ffffffffffffffffffffffffffffffffffffffff166109338486610a2b565b73ffffffffffffffffffffffffffffffffffffffff161490509392505050565b6000816040516020018082805190602001908083835b60208310151561098e5780518252602082019150602081019050602083039250610969565b6001836020036101000a0380198251168184511680821785525050505050509050019150506040516020818303038152906040526040518082805190602001908083835b6020831015156109f757805182526020820191506020810190506020830392506109d2565b6001836020036101000a03801982511681845116808217855250505050505090500191505060405180910390209050919050565b600080600080610a3a85610b0c565b809450819550829350505050601b8160ff161015610a5957601b810190505b601b8160ff1614158015610a715750601c8160ff1614155b15610a7f5760009350610b03565b600186828585604051600081526020016040526040518085600019166000191681526020018460ff1660ff1681526020018360001916600019168152602001826000191660001916815260200194505050505060206040516020810390808403906000865af1158015610af6573d6000803e3d6000fd5b5050506020604051035193505b50505092915050565b60008060008060008060418751141515610b2557600080fd5b6020870151925060408701519150606087015160001a905080838395509550955050505091939092505600a165627a7a723058202f2d4aee21a80dfe36356d00db7babcec6da667993ffe273959300a45f0a3a6a0029",
  "source": "pragma solidity 0.4.24;\n\ncontract Contract1 {\n    address public owner;\n\n    constructor() public {\n        owner = msg.sender;\n    }\n    function kill() external {\n        require(msg.sender == owner, \"Only the owner can kill this contract\");\n        selfdestruct(owner);\n    }\n    function verifyAddressFromTypedSign(bytes _sign, string _mesg, uint _num, address _address) public view returns (bool) {\n        // need to hardcode exactly how the types in the signTypedData are\n        bytes32 typeHash = keccak256(abi.encodePacked('string Message', 'uint256 num'));\n        bytes32 valueHash = keccak256(abi.encodePacked(_mesg, _num));\n        return recover(keccak256(abi.encodePacked(typeHash, valueHash)), _sign) == _address;\n    }\n    function verifyAddressFromWeb3Sign(bytes sign, bytes32 signedMessage, address _address) public pure returns(bool) {\n        return recover(signedMessage, sign) == _address; // works with web3.eth.sign\n    }\n    function verifyAddressWeb3SignElements(bytes32 signedMessage, uint8 v, bytes32 r, bytes32 s, address _address) public pure returns(bool) {\n        return ecrecover(signedMessage, v, r, s) == _address; // works with web3.eth.sign\n    }\n    function recover(bytes32 hash, bytes signature) internal pure returns (address)\n    {\n        bytes32 r;\n        bytes32 s;\n        uint8 v;\n\n        (v, r, s) = splitSignature(signature);\n\n        // Version of signature should be 27 or 28, but 0 and 1 are also possible versions\n        if (v < 27) {\n            v += 27;\n        }\n\n        // If the version is correct return the signer address\n        if (v != 27 && v != 28) {\n            return (address(0));\n        } else {\n            // solium-disable-next-line arg-overflow\n            return ecrecover(hash, v, r, s);\n        }\n    }\n    function splitSignature(bytes sig) internal pure returns (uint8, bytes32, bytes32)\n    {\n        require(sig.length == 65);\n\n        bytes32 r;\n        bytes32 s;\n        uint8 v;\n\n        assembly {\n            // first 32 bytes, after the length prefix\n            r := mload(add(sig, 32))\n            // second 32 bytes\n            s := mload(add(sig, 64))\n            // final byte (first byte of the next 32 bytes)\n            v := byte(0, mload(add(sig, 96)))\n        }\n        return (v, r, s);\n    }\n\n\n    /**\n    * toEthSignedMessageHash\n    * @dev prefix a bytes32 value with \"\\x19Ethereum Signed Message:\"\n    * and hash the result\n    */\n    function toEthSignedMessageHash(bytes32 hash) internal pure returns (bytes32)\n    {\n        // 32 is the length in bytes of hash,\n        // enforced by the type signature above\n        return keccak256(\n            abi.encodePacked(\"\\x19Ethereum Signed Message:\\n32\", hash)\n        );\n    }\n    \n    function hardcoded_recover(string message, uint8 v, bytes32 r, bytes32 s) public pure returns (address) {\n        return ecrecover(doHash(message), v, r, s);\n    }\n    function doHash(string message) internal pure returns (bytes32) {\n        return keccak256(abi.encodePacked(message));\n    }\n}\n",
  "sourcePath": "/Users/Sid/Margin Trading SF/solidityTesting/eth_signTypedData-example/contracts/Contract1.sol",
  "compiler": {
    "name": "solc",
    "version": "0.4.24+commit.e67f0147.Emscripten.clang"
  },
  "schemaVersion": "2.0.1",
  "updatedAt": "2018-10-12T10:05:22.788Z"
}